{
  "_format": "hh-sol-artifact-1",
  "contractName": "MarketPlace",
  "sourceName": "contracts/MarketPlace.sol",
  "abi": [
    {
      "inputs": [],
      "stateMutability": "nonpayable",
      "type": "constructor"
    },
    {
      "inputs": [],
      "name": "ReentrancyGuardReentrantCall",
      "type": "error"
    },
    {
      "anonymous": false,
      "inputs": [
        {
          "indexed": true,
          "internalType": "uint256",
          "name": "itemId",
          "type": "uint256"
        },
        {
          "indexed": true,
          "internalType": "address",
          "name": "nftContract",
          "type": "address"
        },
        {
          "indexed": true,
          "internalType": "uint256",
          "name": "tokenId",
          "type": "uint256"
        },
        {
          "indexed": false,
          "internalType": "address",
          "name": "seller",
          "type": "address"
        },
        {
          "indexed": false,
          "internalType": "address",
          "name": "owner",
          "type": "address"
        },
        {
          "indexed": false,
          "internalType": "uint256",
          "name": "price",
          "type": "uint256"
        },
        {
          "indexed": false,
          "internalType": "bool",
          "name": "sold",
          "type": "bool"
        }
      ],
      "name": "MarketTokenMinted",
      "type": "event"
    },
    {
      "inputs": [
        {
          "internalType": "address",
          "name": "nftContract",
          "type": "address"
        },
        {
          "internalType": "uint256",
          "name": "_Id",
          "type": "uint256"
        }
      ],
      "name": "createMarketSell",
      "outputs": [],
      "stateMutability": "payable",
      "type": "function"
    },
    {
      "inputs": [],
      "name": "feachItemsCreated",
      "outputs": [
        {
          "components": [
            {
              "internalType": "uint256",
              "name": "itemId",
              "type": "uint256"
            },
            {
              "internalType": "address",
              "name": "nftContract",
              "type": "address"
            },
            {
              "internalType": "uint256",
              "name": "tokenId",
              "type": "uint256"
            },
            {
              "internalType": "address payable",
              "name": "seller",
              "type": "address"
            },
            {
              "internalType": "address payable",
              "name": "owner",
              "type": "address"
            },
            {
              "internalType": "uint256",
              "name": "price",
              "type": "uint256"
            },
            {
              "internalType": "bool",
              "name": "sold",
              "type": "bool"
            }
          ],
          "internalType": "struct MarketPlace.MarketToken[]",
          "name": "",
          "type": "tuple[]"
        }
      ],
      "stateMutability": "view",
      "type": "function"
    },
    {
      "inputs": [],
      "name": "feachMarketTokens",
      "outputs": [
        {
          "components": [
            {
              "internalType": "uint256",
              "name": "itemId",
              "type": "uint256"
            },
            {
              "internalType": "address",
              "name": "nftContract",
              "type": "address"
            },
            {
              "internalType": "uint256",
              "name": "tokenId",
              "type": "uint256"
            },
            {
              "internalType": "address payable",
              "name": "seller",
              "type": "address"
            },
            {
              "internalType": "address payable",
              "name": "owner",
              "type": "address"
            },
            {
              "internalType": "uint256",
              "name": "price",
              "type": "uint256"
            },
            {
              "internalType": "bool",
              "name": "sold",
              "type": "bool"
            }
          ],
          "internalType": "struct MarketPlace.MarketToken[]",
          "name": "",
          "type": "tuple[]"
        }
      ],
      "stateMutability": "view",
      "type": "function"
    },
    {
      "inputs": [],
      "name": "feachMyNFT",
      "outputs": [
        {
          "components": [
            {
              "internalType": "uint256",
              "name": "itemId",
              "type": "uint256"
            },
            {
              "internalType": "address",
              "name": "nftContract",
              "type": "address"
            },
            {
              "internalType": "uint256",
              "name": "tokenId",
              "type": "uint256"
            },
            {
              "internalType": "address payable",
              "name": "seller",
              "type": "address"
            },
            {
              "internalType": "address payable",
              "name": "owner",
              "type": "address"
            },
            {
              "internalType": "uint256",
              "name": "price",
              "type": "uint256"
            },
            {
              "internalType": "bool",
              "name": "sold",
              "type": "bool"
            }
          ],
          "internalType": "struct MarketPlace.MarketToken[]",
          "name": "",
          "type": "tuple[]"
        }
      ],
      "stateMutability": "view",
      "type": "function"
    },
    {
      "inputs": [],
      "name": "getListingPrice",
      "outputs": [
        {
          "internalType": "uint256",
          "name": "",
          "type": "uint256"
        }
      ],
      "stateMutability": "view",
      "type": "function"
    },
    {
      "inputs": [],
      "name": "listingPrice",
      "outputs": [
        {
          "internalType": "uint256",
          "name": "",
          "type": "uint256"
        }
      ],
      "stateMutability": "view",
      "type": "function"
    },
    {
      "inputs": [
        {
          "internalType": "address",
          "name": "nftContract",
          "type": "address"
        },
        {
          "internalType": "uint256",
          "name": "tokenId",
          "type": "uint256"
        },
        {
          "internalType": "uint256",
          "name": "price",
          "type": "uint256"
        }
      ],
      "name": "makeMarketItem",
      "outputs": [],
      "stateMutability": "payable",
      "type": "function"
    },
    {
      "inputs": [],
      "name": "owner",
      "outputs": [
        {
          "internalType": "address",
          "name": "",
          "type": "address"
        }
      ],
      "stateMutability": "view",
      "type": "function"
    }
  ],
  "bytecode": "0x6080604052669fdf42f6e4800060045534801561001a575f80fd5b5060015f55600380546001600160a01b03191633179055610c658061003e5f395ff3fe608060405260043610610079575f3560e01c80637a060f561161004c5780637a060f56146100ed5780638da5cb5b146101025780639aa1273714610139578063c78f19f91461014c575f80fd5b80630bb2fe571461007d57806312e85585146100a757806324947c23146100c55780635fd3d80f146100d9575b5f80fd5b348015610088575f80fd5b50610091610161565b60405161009e9190610aa9565b60405180910390f35b3480156100b2575f80fd5b506004545b60405190815260200161009e565b3480156100d0575f80fd5b50610091610320565b3480156100e4575f80fd5b5061009161048c565b6101006100fb366004610b57565b610654565b005b34801561010d575f80fd5b50600354610121906001600160a01b031681565b6040516001600160a01b03909116815260200161009e565b610100610147366004610b87565b6108a2565b348015610157575f80fd5b506100b760045481565b6001546060905f80805b838110156101c3573360055f610182846001610bc3565b815260208101919091526040015f20600301546001600160a01b0316036101b157826101ad81610bdc565b9350505b806101bb81610bdc565b91505061016b565b505f8267ffffffffffffffff8111156101de576101de610bf4565b60405190808252806020026020018201604052801561021757816020015b610204610a6e565b8152602001906001900390816101fc5790505b5090505f5b84811015610317573360055f610233846001610bc3565b815260208101919091526040015f20600301546001600160a01b031603610305575f610260826001610bc3565b5f81815260056020818152604092839020835160e0810185528154815260018201546001600160a01b0390811693820193909352600282015494810194909452600381015482166060850152600481015490911660808401529081015460a0830152600681015460ff16151560c08301528551929350918590879081106102e9576102e9610c08565b602002602001018190525084806102ff90610bdc565b95505050505b8061030f81610bdc565b91505061021c565b50949350505050565b600154600254606091905f906103369083610c1c565b90505f808267ffffffffffffffff81111561035357610353610bf4565b60405190808252806020026020018201604052801561038c57816020015b610379610a6e565b8152602001906001900390816103715790505b5090505f5b84811015610317575f6005816103a8846001610bc3565b815260208101919091526040015f20600401546001600160a01b03160361047a575f6103d5826001610bc3565b5f81815260056020818152604092839020835160e0810185528154815260018201546001600160a01b0390811693820193909352600282015494810194909452600381015482166060850152600481015490911660808401529081015460a0830152600681015460ff16151560c083015285519293509185908790811061045e5761045e610c08565b6020026020010181905250848061047490610bdc565b95505050505b8061048481610bdc565b915050610391565b6001546060905f80805b838110156104ee573360055f6104ad846001610bc3565b815260208101919091526040015f20600401546001600160a01b0316036104dc57826104d881610bdc565b9350505b806104e681610bdc565b915050610496565b505f8267ffffffffffffffff81111561050957610509610bf4565b60405190808252806020026020018201604052801561054257816020015b61052f610a6e565b8152602001906001900390816105275790505b5090505f5b84811015610317573360055f61055e846001610bc3565b815260208101919091526040015f20600401546001600160a01b031603610642575f60058161058e846001610bc3565b815260208082019290925260409081015f90812054808252600580855291839020835160e0810185528154815260018201546001600160a01b0390811696820196909652600282015494810194909452600381015485166060850152600481015490941660808401529083015460a0830152600683015460ff16151560c0830152855190935085908790811061062657610626610c08565b6020026020010181905250848061063c90610bdc565b95505050505b8061064c81610bdc565b915050610547565b61065c610a46565b5f81116106bc5760405162461bcd60e51b815260206004820152602360248201527f546865207072696365206d7573742062652067726561746572205468616e205a60448201526265726f60e81b60648201526084015b60405180910390fd5b60045434101561070e5760405162461bcd60e51b815260206004820152601f60248201527f20596f75204d757374204861766520706179204c697374696e6720466565200060448201526064016106b3565b60018054905f61071d83610bdc565b9091555050600180546040805160e0810182528281526001600160a01b0387811660208084018281528486018a815233606087018181525f6080890181815260a08a018e815260c08b018381528d8452600598899052928c90209a518b5595519c8a0180546001600160a01b03199081169e8b169e909e179055935160028a015590516003890180548d16918916919091179055915160048089018054909c169190971617909955905191850191909155516006909301805460ff19169315159390931790925591516323b872dd60e01b815291820193909352306024820152604481018590529091906323b872dd906064015f604051808303815f87803b158015610827575f80fd5b505af1158015610839573d5f803e3d5ffd5b5050604080513381525f60208201819052818301879052606082015290518693506001600160a01b038816925084917fcd9b0dfebab7db4dbe70606f69fadc8e987e7c80a65410f0bb5ae8bd72dabba7919081900360800190a45061089d60015f55565b505050565b6108aa610a46565b5f818152600560208190526040909120908101546002909101543482146109135760405162461bcd60e51b815260206004820152601860248201527f20546865207072696365206d757374206265207061796564000000000000000060448201526064016106b3565b5f838152600560205260408082206003015490516001600160a01b03909116913480156108fc02929091818181858888f19350505050158015610958573d5f803e3d5ffd5b506040516323b872dd60e01b8152306004820152336024820152604481018290526001600160a01b038516906323b872dd906064015f604051808303815f87803b1580156109a4575f80fd5b505af11580156109b6573d5f803e3d5ffd5b5050505f8481526005602052604081206004810180546001600160a01b03191633179055600601805460ff19166001179055600280549250906109f883610bdc565b90915550506003546004546040516001600160a01b039092169181156108fc0291905f818181858888f19350505050158015610a36573d5f803e3d5ffd5b505050610a4260015f55565b5050565b60025f5403610a6857604051633ee5aeb560e01b815260040160405180910390fd5b60025f55565b6040805160e0810182525f80825260208201819052918101829052606081018290526080810182905260a0810182905260c081019190915290565b602080825282518282018190525f919060409081850190868401855b82811015610b2f57815180518552868101516001600160a01b039081168887015286820151878701526060808301518216908701526080808301519091169086015260a0808201519086015260c09081015115159085015260e09093019290850190600101610ac5565b5091979650505050505050565b80356001600160a01b0381168114610b52575f80fd5b919050565b5f805f60608486031215610b69575f80fd5b610b7284610b3c565b95602085013595506040909401359392505050565b5f8060408385031215610b98575f80fd5b610ba183610b3c565b946020939093013593505050565b634e487b7160e01b5f52601160045260245ffd5b80820180821115610bd657610bd6610baf565b92915050565b5f60018201610bed57610bed610baf565b5060010190565b634e487b7160e01b5f52604160045260245ffd5b634e487b7160e01b5f52603260045260245ffd5b81810381811115610bd657610bd6610baf56fea264697066735822122006279fb7b5121d01af1d04612ab13f8d8feff9a36295495f91e1393b3165f3b864736f6c63430008140033",
  "linkReferences": {},
  "deployedLinkReferences": {}
}