{
  "_format": "hh-sol-artifact-1",
  "contractName": "NFT",
  "sourceName": "contracts/NFT.sol",
  "abi": [
    {
      "inputs": [
        {
          "internalType": "address",
          "name": "_marketPlaceAddress",
          "type": "address"
        }
      ],
      "stateMutability": "nonpayable",
      "type": "constructor"
    },
    {
      "inputs": [
        {
          "internalType": "address",
          "name": "sender",
          "type": "address"
        },
        {
          "internalType": "uint256",
          "name": "tokenId",
          "type": "uint256"
        },
        {
          "internalType": "address",
          "name": "owner",
          "type": "address"
        }
      ],
      "name": "ERC721IncorrectOwner",
      "type": "error"
    },
    {
      "inputs": [
        {
          "internalType": "address",
          "name": "operator",
          "type": "address"
        },
        {
          "internalType": "uint256",
          "name": "tokenId",
          "type": "uint256"
        }
      ],
      "name": "ERC721InsufficientApproval",
      "type": "error"
    },
    {
      "inputs": [
        {
          "internalType": "address",
          "name": "approver",
          "type": "address"
        }
      ],
      "name": "ERC721InvalidApprover",
      "type": "error"
    },
    {
      "inputs": [
        {
          "internalType": "address",
          "name": "operator",
          "type": "address"
        }
      ],
      "name": "ERC721InvalidOperator",
      "type": "error"
    },
    {
      "inputs": [
        {
          "internalType": "address",
          "name": "owner",
          "type": "address"
        }
      ],
      "name": "ERC721InvalidOwner",
      "type": "error"
    },
    {
      "inputs": [
        {
          "internalType": "address",
          "name": "receiver",
          "type": "address"
        }
      ],
      "name": "ERC721InvalidReceiver",
      "type": "error"
    },
    {
      "inputs": [
        {
          "internalType": "address",
          "name": "sender",
          "type": "address"
        }
      ],
      "name": "ERC721InvalidSender",
      "type": "error"
    },
    {
      "inputs": [
        {
          "internalType": "uint256",
          "name": "tokenId",
          "type": "uint256"
        }
      ],
      "name": "ERC721NonexistentToken",
      "type": "error"
    },
    {
      "anonymous": false,
      "inputs": [
        {
          "indexed": true,
          "internalType": "address",
          "name": "owner",
          "type": "address"
        },
        {
          "indexed": true,
          "internalType": "address",
          "name": "approved",
          "type": "address"
        },
        {
          "indexed": true,
          "internalType": "uint256",
          "name": "tokenId",
          "type": "uint256"
        }
      ],
      "name": "Approval",
      "type": "event"
    },
    {
      "anonymous": false,
      "inputs": [
        {
          "indexed": true,
          "internalType": "address",
          "name": "owner",
          "type": "address"
        },
        {
          "indexed": true,
          "internalType": "address",
          "name": "operator",
          "type": "address"
        },
        {
          "indexed": false,
          "internalType": "bool",
          "name": "approved",
          "type": "bool"
        }
      ],
      "name": "ApprovalForAll",
      "type": "event"
    },
    {
      "anonymous": false,
      "inputs": [
        {
          "indexed": false,
          "internalType": "uint256",
          "name": "_fromTokenId",
          "type": "uint256"
        },
        {
          "indexed": false,
          "internalType": "uint256",
          "name": "_toTokenId",
          "type": "uint256"
        }
      ],
      "name": "BatchMetadataUpdate",
      "type": "event"
    },
    {
      "anonymous": false,
      "inputs": [
        {
          "indexed": false,
          "internalType": "uint256",
          "name": "_tokenId",
          "type": "uint256"
        }
      ],
      "name": "MetadataUpdate",
      "type": "event"
    },
    {
      "anonymous": false,
      "inputs": [
        {
          "indexed": true,
          "internalType": "address",
          "name": "from",
          "type": "address"
        },
        {
          "indexed": true,
          "internalType": "address",
          "name": "to",
          "type": "address"
        },
        {
          "indexed": true,
          "internalType": "uint256",
          "name": "tokenId",
          "type": "uint256"
        }
      ],
      "name": "Transfer",
      "type": "event"
    },
    {
      "inputs": [
        {
          "internalType": "address",
          "name": "to",
          "type": "address"
        },
        {
          "internalType": "uint256",
          "name": "tokenId",
          "type": "uint256"
        }
      ],
      "name": "approve",
      "outputs": [],
      "stateMutability": "nonpayable",
      "type": "function"
    },
    {
      "inputs": [
        {
          "internalType": "address",
          "name": "owner",
          "type": "address"
        }
      ],
      "name": "balanceOf",
      "outputs": [
        {
          "internalType": "uint256",
          "name": "",
          "type": "uint256"
        }
      ],
      "stateMutability": "view",
      "type": "function"
    },
    {
      "inputs": [
        {
          "internalType": "uint256",
          "name": "tokenId",
          "type": "uint256"
        }
      ],
      "name": "getApproved",
      "outputs": [
        {
          "internalType": "address",
          "name": "",
          "type": "address"
        }
      ],
      "stateMutability": "view",
      "type": "function"
    },
    {
      "inputs": [
        {
          "internalType": "address",
          "name": "owner",
          "type": "address"
        },
        {
          "internalType": "address",
          "name": "operator",
          "type": "address"
        }
      ],
      "name": "isApprovedForAll",
      "outputs": [
        {
          "internalType": "bool",
          "name": "",
          "type": "bool"
        }
      ],
      "stateMutability": "view",
      "type": "function"
    },
    {
      "inputs": [],
      "name": "marketPlaceAddress",
      "outputs": [
        {
          "internalType": "address",
          "name": "",
          "type": "address"
        }
      ],
      "stateMutability": "view",
      "type": "function"
    },
    {
      "inputs": [
        {
          "internalType": "string",
          "name": "tokenURI",
          "type": "string"
        }
      ],
      "name": "mintToken",
      "outputs": [
        {
          "internalType": "uint256",
          "name": "",
          "type": "uint256"
        }
      ],
      "stateMutability": "nonpayable",
      "type": "function"
    },
    {
      "inputs": [],
      "name": "name",
      "outputs": [
        {
          "internalType": "string",
          "name": "",
          "type": "string"
        }
      ],
      "stateMutability": "view",
      "type": "function"
    },
    {
      "inputs": [
        {
          "internalType": "uint256",
          "name": "tokenId",
          "type": "uint256"
        }
      ],
      "name": "ownerOf",
      "outputs": [
        {
          "internalType": "address",
          "name": "",
          "type": "address"
        }
      ],
      "stateMutability": "view",
      "type": "function"
    },
    {
      "inputs": [
        {
          "internalType": "address",
          "name": "from",
          "type": "address"
        },
        {
          "internalType": "address",
          "name": "to",
          "type": "address"
        },
        {
          "internalType": "uint256",
          "name": "tokenId",
          "type": "uint256"
        }
      ],
      "name": "safeTransferFrom",
      "outputs": [],
      "stateMutability": "nonpayable",
      "type": "function"
    },
    {
      "inputs": [
        {
          "internalType": "address",
          "name": "from",
          "type": "address"
        },
        {
          "internalType": "address",
          "name": "to",
          "type": "address"
        },
        {
          "internalType": "uint256",
          "name": "tokenId",
          "type": "uint256"
        },
        {
          "internalType": "bytes",
          "name": "data",
          "type": "bytes"
        }
      ],
      "name": "safeTransferFrom",
      "outputs": [],
      "stateMutability": "nonpayable",
      "type": "function"
    },
    {
      "inputs": [
        {
          "internalType": "address",
          "name": "operator",
          "type": "address"
        },
        {
          "internalType": "bool",
          "name": "approved",
          "type": "bool"
        }
      ],
      "name": "setApprovalForAll",
      "outputs": [],
      "stateMutability": "nonpayable",
      "type": "function"
    },
    {
      "inputs": [
        {
          "internalType": "bytes4",
          "name": "interfaceId",
          "type": "bytes4"
        }
      ],
      "name": "supportsInterface",
      "outputs": [
        {
          "internalType": "bool",
          "name": "",
          "type": "bool"
        }
      ],
      "stateMutability": "view",
      "type": "function"
    },
    {
      "inputs": [],
      "name": "symbol",
      "outputs": [
        {
          "internalType": "string",
          "name": "",
          "type": "string"
        }
      ],
      "stateMutability": "view",
      "type": "function"
    },
    {
      "inputs": [],
      "name": "tokenId",
      "outputs": [
        {
          "internalType": "uint256",
          "name": "",
          "type": "uint256"
        }
      ],
      "stateMutability": "view",
      "type": "function"
    },
    {
      "inputs": [
        {
          "internalType": "uint256",
          "name": "tokenId",
          "type": "uint256"
        }
      ],
      "name": "tokenURI",
      "outputs": [
        {
          "internalType": "string",
          "name": "",
          "type": "string"
        }
      ],
      "stateMutability": "view",
      "type": "function"
    },
    {
      "inputs": [
        {
          "internalType": "address",
          "name": "from",
          "type": "address"
        },
        {
          "internalType": "address",
          "name": "to",
          "type": "address"
        },
        {
          "internalType": "uint256",
          "name": "tokenId",
          "type": "uint256"
        }
      ],
      "name": "transferFrom",
      "outputs": [],
      "stateMutability": "nonpayable",
      "type": "function"
    }
  ],
  "bytecode": "0x608060405234801562000010575f80fd5b50604051620014ff380380620014ff8339810160408190526200003391620000bb565b6040518060400160405280600981526020016841776f47656265796160b81b8152506040518060400160405280600481526020016341776f4760e01b815250815f90816200008291906200018a565b5060016200009182826200018a565b5050600780546001600160a01b0319166001600160a01b0393909316929092179091555062000252565b5f60208284031215620000cc575f80fd5b81516001600160a01b0381168114620000e3575f80fd5b9392505050565b634e487b7160e01b5f52604160045260245ffd5b600181811c908216806200011357607f821691505b6020821081036200013257634e487b7160e01b5f52602260045260245ffd5b50919050565b601f82111562000185575f81815260208120601f850160051c81016020861015620001605750805b601f850160051c820191505b8181101562000181578281556001016200016c565b5050505b505050565b81516001600160401b03811115620001a657620001a6620000ea565b620001be81620001b78454620000fe565b8462000138565b602080601f831160018114620001f4575f8415620001dc5750858301515b5f19600386901b1c1916600185901b17855562000181565b5f85815260208120601f198616915b82811015620002245788860151825594840194600190910190840162000203565b50858210156200024257878501515f19600388901b60f8161c191681555b5050505050600190811b01905550565b61129f80620002605f395ff3fe608060405234801561000f575f80fd5b50600436106100fb575f3560e01c80636352211e11610093578063b88d4fde11610063578063b88d4fde1461020d578063c87b56dd14610220578063e985e9c514610233578063ed27107b14610246575f80fd5b80636352211e146101cc57806370a08231146101df57806395d89b41146101f2578063a22cb465146101fa575f80fd5b806317d70f7c116100ce57806317d70f7c1461017c57806323b872dd1461019357806333eba49a146101a657806342842e0e146101b9575f80fd5b806301ffc9a7146100ff57806306fdde0314610127578063081812fc1461013c578063095ea7b314610167575b5f80fd5b61011261010d366004610dac565b610259565b60405190151581526020015b60405180910390f35b61012f610283565b60405161011e9190610e14565b61014f61014a366004610e26565b610312565b6040516001600160a01b03909116815260200161011e565b61017a610175366004610e58565b610339565b005b61018560085481565b60405190815260200161011e565b61017a6101a1366004610e80565b610348565b6101856101b4366004610f40565b6103d6565b61017a6101c7366004610e80565b610422565b61014f6101da366004610e26565b610441565b6101856101ed366004610f85565b61044b565b61012f610490565b61017a610208366004610f9e565b61049f565b61017a61021b366004610fd7565b6104aa565b61012f61022e366004610e26565b6104c1565b61011261024136600461104e565b6105cc565b60075461014f906001600160a01b031681565b5f6001600160e01b03198216632483248360e11b148061027d575061027d826105f9565b92915050565b60605f80546102919061107f565b80601f01602080910402602001604051908101604052809291908181526020018280546102bd9061107f565b80156103085780601f106102df57610100808354040283529160200191610308565b820191905f5260205f20905b8154815290600101906020018083116102eb57829003601f168201915b5050505050905090565b5f61031c82610648565b505f828152600460205260409020546001600160a01b031661027d565b610344828233610680565b5050565b6001600160a01b03821661037657604051633250574960e11b81525f60048201526024015b60405180910390fd5b5f61038283833361068d565b9050836001600160a01b0316816001600160a01b0316146103d0576040516364283d7b60e01b81526001600160a01b038086166004830152602482018490528216604482015260640161036d565b50505050565b600880545f91826103e6836110b7565b91905055506103f73360085461077f565b610403600854836107e0565b60075461041a906001600160a01b0316600161049f565b505060085490565b61043c83838360405180602001604052805f8152506104aa565b505050565b5f61027d82610648565b5f6001600160a01b038216610475576040516322718ad960e21b81525f600482015260240161036d565b506001600160a01b03165f9081526003602052604090205490565b6060600180546102919061107f565b61034433838361082f565b6104b5848484610348565b6103d0848484846108cd565b60606104cc82610648565b505f82815260066020526040812080546104e59061107f565b80601f01602080910402602001604051908101604052809291908181526020018280546105119061107f565b801561055c5780601f106105335761010080835404028352916020019161055c565b820191905f5260205f20905b81548152906001019060200180831161053f57829003601f168201915b505050505090505f61057860408051602081019091525f815290565b905080515f03610589575092915050565b8151156105bb5780826040516020016105a39291906110db565b60405160208183030381529060405292505050919050565b6105c4846109f3565b949350505050565b6001600160a01b039182165f90815260056020908152604080832093909416825291909152205460ff1690565b5f6001600160e01b031982166380ac58cd60e01b148061062957506001600160e01b03198216635b5e139f60e01b145b8061027d57506301ffc9a760e01b6001600160e01b031983161461027d565b5f818152600260205260408120546001600160a01b03168061027d57604051637e27328960e01b81526004810184905260240161036d565b61043c8383836001610a64565b5f828152600260205260408120546001600160a01b03908116908316156106b9576106b9818486610b68565b6001600160a01b038116156106f3576106d45f855f80610a64565b6001600160a01b0381165f90815260036020526040902080545f190190555b6001600160a01b03851615610721576001600160a01b0385165f908152600360205260409020805460010190555b5f8481526002602052604080822080546001600160a01b0319166001600160a01b0389811691821790925591518793918516917fddf252ad1be2c89b69c2b068fc378daa952ba7f163c4a11628f55a4df523b3ef91a4949350505050565b6001600160a01b0382166107a857604051633250574960e11b81525f600482015260240161036d565b5f6107b483835f61068d565b90506001600160a01b0381161561043c576040516339e3563760e11b81525f600482015260240161036d565b5f8281526006602052604090206107f78282611156565b506040518281527ff8e1a15aba9398e019f0b49df1a4fde98ee17ae345cb5f6b5e2c27f5033e8ce79060200160405180910390a15050565b6001600160a01b03821661086157604051630b61174360e31b81526001600160a01b038316600482015260240161036d565b6001600160a01b038381165f81815260056020908152604080832094871680845294825291829020805460ff191686151590811790915591519182527f17307eab39ab6107e8899845ad3d59bd9653f200f220920489ca2b5937696c31910160405180910390a3505050565b6001600160a01b0383163b156103d057604051630a85bd0160e11b81526001600160a01b0384169063150b7a029061090f903390889087908790600401611212565b6020604051808303815f875af1925050508015610949575060408051601f3d908101601f191682019092526109469181019061124e565b60015b6109b0573d808015610976576040519150601f19603f3d011682016040523d82523d5f602084013e61097b565b606091505b5080515f036109a857604051633250574960e11b81526001600160a01b038516600482015260240161036d565b805181602001fd5b6001600160e01b03198116630a85bd0160e11b146109ec57604051633250574960e11b81526001600160a01b038516600482015260240161036d565b5050505050565b60606109fe82610648565b505f610a1460408051602081019091525f815290565b90505f815111610a325760405180602001604052805f815250610a5d565b80610a3c84610bcc565b604051602001610a4d9291906110db565b6040516020818303038152906040525b9392505050565b8080610a7857506001600160a01b03821615155b15610b39575f610a8784610648565b90506001600160a01b03831615801590610ab35750826001600160a01b0316816001600160a01b031614155b8015610ac65750610ac481846105cc565b155b15610aef5760405163a9fbf51f60e01b81526001600160a01b038416600482015260240161036d565b8115610b375783856001600160a01b0316826001600160a01b03167f8c5be1e5ebec7d5bd14f71427d1e84f3dd0314c0f7b2291e5b200ac8c7c3b92560405160405180910390a45b505b50505f90815260046020526040902080546001600160a01b0319166001600160a01b0392909216919091179055565b610b73838383610c5c565b61043c576001600160a01b038316610ba157604051637e27328960e01b81526004810182905260240161036d565b60405163177e802f60e01b81526001600160a01b03831660048201526024810182905260440161036d565b60605f610bd883610cbd565b60010190505f8167ffffffffffffffff811115610bf757610bf7610eb9565b6040519080825280601f01601f191660200182016040528015610c21576020820181803683370190505b5090508181016020015b5f19016f181899199a1a9b1b9c1cb0b131b232b360811b600a86061a8153600a8504945084610c2b57509392505050565b5f6001600160a01b038316158015906105c45750826001600160a01b0316846001600160a01b03161480610c955750610c9584846105cc565b806105c45750505f908152600460205260409020546001600160a01b03908116911614919050565b5f8072184f03e93ff9f4daa797ed6e38ed64bf6a1f0160401b8310610cfb5772184f03e93ff9f4daa797ed6e38ed64bf6a1f0160401b830492506040015b6d04ee2d6d415b85acef81000000008310610d27576d04ee2d6d415b85acef8100000000830492506020015b662386f26fc100008310610d4557662386f26fc10000830492506010015b6305f5e1008310610d5d576305f5e100830492506008015b6127108310610d7157612710830492506004015b60648310610d83576064830492506002015b600a831061027d5760010192915050565b6001600160e01b031981168114610da9575f80fd5b50565b5f60208284031215610dbc575f80fd5b8135610a5d81610d94565b5f5b83811015610de1578181015183820152602001610dc9565b50505f910152565b5f8151808452610e00816020860160208601610dc7565b601f01601f19169290920160200192915050565b602081525f610a5d6020830184610de9565b5f60208284031215610e36575f80fd5b5035919050565b80356001600160a01b0381168114610e53575f80fd5b919050565b5f8060408385031215610e69575f80fd5b610e7283610e3d565b946020939093013593505050565b5f805f60608486031215610e92575f80fd5b610e9b84610e3d565b9250610ea960208501610e3d565b9150604084013590509250925092565b634e487b7160e01b5f52604160045260245ffd5b5f67ffffffffffffffff80841115610ee757610ee7610eb9565b604051601f8501601f19908116603f01168101908282118183101715610f0f57610f0f610eb9565b81604052809350858152868686011115610f27575f80fd5b858560208301375f602087830101525050509392505050565b5f60208284031215610f50575f80fd5b813567ffffffffffffffff811115610f66575f80fd5b8201601f81018413610f76575f80fd5b6105c484823560208401610ecd565b5f60208284031215610f95575f80fd5b610a5d82610e3d565b5f8060408385031215610faf575f80fd5b610fb883610e3d565b915060208301358015158114610fcc575f80fd5b809150509250929050565b5f805f8060808587031215610fea575f80fd5b610ff385610e3d565b935061100160208601610e3d565b925060408501359150606085013567ffffffffffffffff811115611023575f80fd5b8501601f81018713611033575f80fd5b61104287823560208401610ecd565b91505092959194509250565b5f806040838503121561105f575f80fd5b61106883610e3d565b915061107660208401610e3d565b90509250929050565b600181811c9082168061109357607f821691505b6020821081036110b157634e487b7160e01b5f52602260045260245ffd5b50919050565b5f600182016110d457634e487b7160e01b5f52601160045260245ffd5b5060010190565b5f83516110ec818460208801610dc7565b835190830190611100818360208801610dc7565b01949350505050565b601f82111561043c575f81815260208120601f850160051c8101602086101561112f5750805b601f850160051c820191505b8181101561114e5782815560010161113b565b505050505050565b815167ffffffffffffffff81111561117057611170610eb9565b6111848161117e845461107f565b84611109565b602080601f8311600181146111b7575f84156111a05750858301515b5f19600386901b1c1916600185901b17855561114e565b5f85815260208120601f198616915b828110156111e5578886015182559484019460019091019084016111c6565b508582101561120257878501515f19600388901b60f8161c191681555b5050505050600190811b01905550565b6001600160a01b03858116825284166020820152604081018390526080606082018190525f9061124490830184610de9565b9695505050505050565b5f6020828403121561125e575f80fd5b8151610a5d81610d9456fea2646970667358221220c79ee8133d1dba28950fcbee7c685c12a4272a7e703886ff2385b3b6507e097f64736f6c63430008140033",
  "linkReferences": {},
  "deployedLinkReferences": {}
}